:020000040800F2
:10000000900700204D0200083D130008251200084B
:1000100039130008FD02000805190008000000005F
:100020000000000000000000000000007B1300083A
:100030000103000800000000791300087D13000888
:1000400067020008670200086702000867020008EC
:1000500067020008670200086702000867020008DC
:1000600067020008670200086702000867020008CC
:1000700067020008670200086702000867020008BC
:1000800067020008670200086702000867020008AC
:10009000670200086702000867020008670200089C
:1000A000670200086702000867020008670200088C
:1000B000670200086702000867020008670200087C
:1000C000670200086702000867020008670200086C
:1000D0006702000865180008670200086702000848
:1000E000670200086702000867020008670200084C
:1000F000670200086702000867020008670200083C
:10010000670200086702000867020008670200082B
:10011000670200086702000867020008670200081B
:10012000670200086702000867020008670200080B
:1001300067020008670200086702000867020008FB
:1001400067020008670200086702000867020008EB
:1001500067020008670200086702000867020008DB
:1001600067020008670200086702000867020008CB
:10017000670200086702000867020008000000002C
:1001800067020008670200086702000867020008AB
:10019000670200086702000867020008670200089B
:1001A00067020008670200086702000800F002F812
:1001B00000F03CF80AA090E8000C82448344AAF1C5
:1001C0000107DA4501D100F031F8AFF2090EBAE8C3
:1001D0000F0013F0010F18BFFB1A43F0010318477B
:1001E000E418000004190000103A24BF78C878C150
:1001F000FAD8520724BF30C830C144BF04680C602D
:10020000704700000023002400250026103A28BF74
:1002100078C1FBD8520728BF30C148BF0B60704778
:100220001FB501F041FC1FBD10B510BD00F033F843
:100230001146FFF7F5FF01F0A3FB00F051F803B4FE
:10024000FFF7F2FF03BC01F05FFB000009488047A5
:1002500009480047FEE7FEE7FEE7FEE7FEE7FEE7A8
:10026000FEE7FEE7FEE7FEE704480549054A064BC0
:100270007047000085130008AD01000890010020C0
:1002800090070020900300209003002070477047E3
:10029000704770477047754600F02CF8AE46050071
:1002A0006946534620F00700854618B020B5FFF791
:1002B000DBFFBDE820404FF000064FF000074FF095
:1002C00000084FF0000B21F00701AC46ACE8C00974
:1002D000ACE8C009ACE8C009ACE8C0098D4670477D
:1002E00010B50446AFF300802046BDE81040FFF78C
:1002F000A6BF0000004870472C01002000BFFEE7A9
:1003000070470000F8B502460B4600250024002087
:100310000021E6E0012606FA01F51E6806EA05045A
:10032000AC4273D15E68022E02D05E68122E13D1E9
:10033000CF0802F1200656F827004E07F70E0F26C9
:10034000BE40B0434F07FF0E1E69BE403043CF088A
:1003500002F1200646F8270010684F000326BE4031
:10036000B0431E7906F003064F00BE4030431060D4
:100370005E68012E08D05E68022E05D05E68112EE0
:1003800002D05E68122E13D190684F000326BE4043
:10039000B0434F00DE68BE40304390605068012695
:1003A0008E40B0431E79C6F300168E403043506035
:1003B000D0684F000326BE40B0434F009E68BE4049
:1003C0003043D0605E6806F08056B6F1805FA8D1F9
:1003D00000BF00260096454E366846F48046434FDF
:1003E0003E603E46366806F48046009600BF00BF79
:1003F0003F4E8F0856F827008E07370F0F26BE4056
:10040000B0433C4EB24202D100262EE068E03A4EA4
:10041000B24201D1012628E0384EB24201D1022673
:1004200023E0374EB24201D103261EE0354EB242E0
:1004300001D1042619E0344EB24201D1052614E060
:10044000324EB24201D106260FE0314EB24201D106
:1004500007260AE02F4EB24201D1082605E02E4EB3
:10046000B24201D1092600E00A268F073F0FBE40A5
:1004700030431F4E8F0846F82700284E3068A043AF
:100480005E6806F48036B6F5803F00D12043234EE7
:100490003060361D3068A0435E6806F40036B6F55D
:1004A000003F00D120431D4E361D3060361D3068A0
:1004B000A0435E6806F48016B6F5801F00D1204385
:1004C000164E08363060361D3068A0435E6806F46C
:1004D0000016B6F5001F00D12043104E0C363060D8
:1004E000491C1029FFF416AFF8BD00004438024043
:1004F00008380140000002400004024000080240A9
:10050000000C02400010024000140240001802409B
:10051000001C02400020024000240240003C014038
:100520000AB1816101E00B048361704701480068F2
:10053000000C7047002004E001480068704700008C
:100540001400002002480068401C01490860704700
:100550001400002010B50D48006840F400700B49ED
:1005600008600846006840F480600860084600683B
:1005700040F480700860052000F06CF80F2000F057
:1005800007F800F017F8002010BD0000003C024002
:1005900070B5044600F0CAF94FF47A71B0FBF1F57A
:1005A000284600F07DFC00222146501E00F014F881
:1005B000002070BD08B50020009000BF08BD00BF3E
:1005C00000F01F02012191404209920002F1E02255
:1005D000C2F8001100BF70472DE9F05F80460D465C
:1005E0001646002700F0ACFE074639462A46334639
:1005F00001F00700C0F1070ABAF1040F02D94FF069
:10060000040A01E0C0F1070AD14600F1040ABAF178
:10061000070F02D24FF0000A01E0A0F1030AD4460E
:100620004FF0010A0AFA09FAAAF1010A0AEA020AD3
:100630000AFA0CFA4FF0010B0BFA0CFBABF1010BB1
:100640000BEA030B4AEA0B042146404600F080FE09
:10065000BDE8F09F00BF00F00702064B19684FF697
:10066000FF031940044B0B4343EA0221014B19607D
:1006700000BF70470CED00E00000FA0570B50446BD
:100680000E460025A748006800F00F00B0426FD268
:10069000A4490E700846006800F00F00B04201D077
:1006A000012070BD207800F00200022807D19E488A
:1006B000006820F0F000A16808439B49086020789A
:1006C00000F0010000283ED06068012807D196485C
:1006D00008380068C0F34040B8B90120E1E760681D
:1006E000022802D06068032807D18F4808380068C4
:1006F000C0F3406048B90120D3E78B480838006850
:10070000C0F3400008B90120CBE78748006820F01B
:1007100003006168084384490860FFF70DFF054640
:100720006068012810D108E0FFF706FF401B41F286
:100730008831884201D90320B3E77B48006800F084
:100740000C000428F0D1CDE06068022811D108E047
:10075000FFF7F2FE401B41F28831884201D90320A5
:100760009FE77148006800F00C000828F0D1B9E05C
:1007700024E06068032810D108E0FFF7DDFE401B8D
:1007800041F28831884201D903208AE7664800682F
:1007900000F00C000328F0D1A4E008E0FFF7CCFE45
:1007A000401B41F28831884201D9032079E75E4835
:1007B000006800F00C000028F0D193E0207800F0F1
:1007C0000200022807D15848006820F0F000A16814
:1007D000084355490860207800F00100002877D0D0
:1007E0006068012807D1504808380068C0F34040CD
:1007F000B8B9012055E76068022802D06068032874
:1008000007D1494808380068C0F3406048B9012062
:1008100047E7454808380068C0F3400008B90120A0
:100820003FE74148006820F00300616808433E4903
:100830000860FFF781FE05466068012810D108E0D6
:10084000FFF77AFE401B41F28831884201D903202C
:1008500027E73548006800F00C000428F0D137E0A5
:100860006068022810D108E0FFF766FE401B41F2E5
:100870008831884201D9032013E72B48006800F033
:100880000C000828F0D123E06068032810D108E0AC
:10089000FFF752FE401B41F28831884201D9032004
:1008A000FFE62148006800F00C000328F0D10FE0BB
:1008B00008E0FFF741FE401B41F28831884201D930
:1008C0000320EEE61848006800F00C000028F0D184
:1008D00014490E700846006800F00F00B04201D0C5
:1008E0000120DEE6207800F00400042807D10E483D
:1008F000006820F4E050E16808430B490860207864
:1009000000F00800082808D10748006820F460407B
:10091000216940EAC100044908600F20FFF738FE52
:100920000020BEE6003C02400838024010B500F04E
:1009300045F80949096801F0F001F02292FAA2F2A3
:10094000B2FA82F2D140054A515CC84004490860BD
:100950000846006810BD000008380240B21A0008BE
:100960000000002010B5FFF7E1FF0749096801F416
:10097000E0514FF4E05292FAA2F2B2FA82F2D14080
:10098000024A515CC84010BD08380240B21A000843
:1009900010B5FFF7CBFF0749096801F460414FF438
:1009A000604292FAA2F2B2FA82F2D140024A515C5B
:1009B000C84010BD08380240B21A000870B50021C6
:1009C000002200230020274C246804F00C0424B1EA
:1009D000042C04D0082C41D103E0234840E02348F4
:1009E0003EE0204C241F246804F03F011D4C241FCE
:1009F000246804F4800484B11C4CB4FBF1F5194C58
:100A0000241F246847F6C076344096FAA6F6B6FA54
:100A100086F6F44005FB04F20FE0134CB4FBF1F54D
:100A2000104C241F246847F6C076344096FAA6F688
:100A3000B6FA86F6F44005FB04F20A4C241F24683B
:100A400004F440344FF4403595FAA5F5B5FA85F530
:100A5000EC40641C6300B2FBF3F001E0024800BF0D
:100A600000BF70BD083802400024F40040787D01CA
:100A700038B504460025207800F00100002866D033
:100A8000F748006800F00C0004280DD0F448006816
:100A900000F00C00082813D1F148001F006800F492
:100AA0008000B0F5800F0BD1ED4808380068C0F326
:100AB000404000284BD06068002848D1012038BD54
:100AC0000020E749891F0870FFF736FD054608E05A
:100AD000FFF732FD401B41F28831884201D90320E3
:100AE000EDE7DF4808380068C0F340400028EFD148
:100AF0002079DB49891F08706068A0B1FFF71CFDF1
:100B0000054608E0FFF718FD401B41F28831884296
:100B100001D90320D3E7D24808380068C0F3404029
:100B20000028EFD013E0FFF707FD054608E0FFF7C8
:100B300003FD401B41F28831884201D90320BEE702
:100B4000C74808380068C0F340400028EFD120783B
:100B500000F00200022869D1C148006800F00C00D2
:100B600058B1BF48006800F00C00082821D1BC48EB
:100B7000001F006800F48000D8B9B9480838006840
:100B8000C0F3400020B1E068012801D0012096E7C1
:100B9000B3480838006820F0F800F82292FAA2F270
:100BA000B2FA82F2216991400843AD4908390860E0
:100BB0003CE0E06828B30120AA490860FFF7BCFCCC
:100BC000054606E0FFF7B8FC401B642801D9032066
:100BD00075E7A34808380068C0F340000028F1D04A
:100BE0009F480838006820F0F800F82292FAA2F234
:100BF000B2FA82F2216991400843994908390860A4
:100C000014E0002097490860FFF796FC054606E0CF
:100C1000FFF792FC401B642801D903204FE790485E
:100C200008380068C0F340000028F1D1207800F0B7
:100C3000080008282CD16069A8B101208A49086001
:100C4000FFF77AFC054606E0FFF776FC401B6428B8
:100C500001D9032033E782486C300068C0F34000BC
:100C60000028F1D014E000207F490860FFF764FC01
:100C7000054606E0FFF760FC401B642801D903200D
:100C80001DE777486C300068C0F340000028F1D1C0
:100C9000207800F0040004286FD100BF00200090ED
:100CA0006F483830006840F080506D493831086036
:100CB0000846006800F08050009000BF00BF6B48FD
:100CC000006840F4807069490860FFF735FC05460C
:100CD00006E0FFF731FC401B642801D90320EEE653
:100CE0006248006800F480700028F2D000205C495F
:100CF00068310870FFF720FC054608E0FFF71CFC90
:100D0000401B41F28831884201D90320D7E654487C
:100D100068300068C0F340000028EFD1207A5049C5
:100D200068310870A068A0B1FFF706FC054608E02E
:100D3000FFF702FC401B41F28831884201D90320B1
:100D4000BDE6474868300068C0F340000028EFD097
:100D500013E0FFF7F1FB054608E0FFF7EDFB401B52
:100D600041F28831884201D90320A8E63C48683026
:100D70000068C0F340000028EFD1A069F0B3384804
:100D8000006800F00C00082872D0A069022850D139
:100D9000002034490866FFF7CFFB054606E0FFF761
:100DA000CBFB401B642801D9032088E62C48083877
:100DB0000068C0F340600028F1D1D4E9070108437E
:100DC00047F6C07292FAA2F2B2FA82F2616A9140D8
:100DD00008430122A16AC2EB51014FF4403292FA5A
:100DE000A2F2B2FA82F2914008434FF0706292FA96
:100DF000A2F2B2FA82F2E16A914000E03AE00843DE
:100E00001749091F0860012016490866FFF794FB7F
:100E1000054606E0FFF790FB401B642801D903203C
:100E20004DE60F4808380068C0F340600028F1D054
:100E300020E000200B490866FFF77EFB054606E030
:100E4000FFF77AFB401B642801D9032037E60448EA
:100E500008380068C0F340600028F1D10AE007E0DC
:100E60000838024000004742800E474200700040B0
:100E7000012024E6002022E6042808D14FF0E021DA
:100E8000096941F004014FF0E022116107E04FF0E1
:100E9000E021096921F004014FF0E022116170475F
:100EA00070B504462546681EB0F1807F01D301204D
:100EB0000FE0681E4FF0E02148610F214FF0FF3036
:100EC00000F046FA00204FF0E02188610720086119
:100ED000002070BD7047F8B5044600250026206844
:100EE000006800F001052068C06800F480767DB1DC
:100EF00076B100BF00200090206800680090206854
:100F00004068009000BF00BFE06B40F00100E0636C
:100F100020680068C0F340052068406900F00106C1
:100F20007DB176B100BF002000902068006800907D
:100F300020684068009000BF00BFE06B40F00400F4
:100F4000E06320680068C0F380052068406900F015
:100F500001067DB176B100BF0020009020680068D6
:100F6000009020684068009000BF00BFE06B40F038
:100F70000200E06320680068C0F3C0052068406993
:100F800000F001067DB176B100BF0020009020681E
:100F90000068009020684068009000BF00BFE06BD0
:100FA00040F00800E06320680068C0F34015206846
:100FB000C06800F020061DB116B1204600F02CFAE2
:100FC00020680068C0F3C0152068C06800F0800683
:100FD0001DB116B1204600F08FFB20680068C0F3F9
:100FE00080152068C06800F040061DB116B120468B
:100FF00000F0FAF9E06B28B1012084F839002046AE
:10100000FFF768FFF8BD10B504460CB9012010BD0C
:10101000A06900B100E000BF94F8390028B90020B1
:1010200084F83800204600F025F8022084F83900C2
:101030002068C06820F400502168C860204600F095
:1010400049FA2068006920F490402168086120680E
:10105000406920F02A00216848612068C06840F497
:1010600000502168C8600020E063012084F8390046
:101070000020CCE710B586B0044628492068884295
:101080004AD100BF002000902548006840F00100D0
:10109000234908600846006800F00100009000BF86
:1010A00000BF00BF002000901D481430006840F0D1
:1010B00010001B49143108600846006800F0100059
:1010C000009000BF00BF481501900220029001204F
:1010D0000390022004900720059001A91148FFF712
:1010E00011F94FF48060019001A90E48FFF70AF949
:1010F0002068C06820F040002168C8602068C0688F
:1011000040F020002168C8602520FFF758FA03222C
:1011100011462520FFF760FA06B010BD001001400F
:1011200030380240000002402DE9F04704460D46E9
:10113000164699464FF0000894F83980B8F1010F2F
:1011400002D0B8F1120F69D105B116B90120BDE87E
:10115000F08700BF94F83800012801D10220F6E79B
:10116000012084F8380000BF0020E06394F83900C3
:10117000122803D1322084F8390002E0222084F8BA
:101180003900A685E68535E0E08D401EE085A06843
:10119000B0F5805F18D14B4600222021204600F098
:1011A000E3FA08B10320D2E72F46206930B920685E
:1011B0004068C0F308003880AD1C1BE02068406820
:1011C000C0B238806D1C15E04B460022202120461D
:1011D00000F0CAFA08B10320B9E7206920B92068F5
:1011E000406805F8010B05E02068406800F07F00CA
:1011F00005F8010BE08D0028C6DC94F83900322890
:1012000003D1122084F8390002E0012084F839006B
:1012100000BF002084F8380000BF98E7022096E75E
:101220007047704700BFFEE700B587B000BF0020E1
:1012300001902648006840F00100244908600846F3
:10124000006800F00100019000BF00BF00BF002057
:1012500001900846006840F00400086008460068F5
:1012600000F00400019000BF00BF00BF002001900B
:101270000846006840F0800008600846006800F0FA
:101280008000019000BF00BF012002900020039069
:10129000022004900320059002A90D48FFF732F8C0
:1012A0004FF400500290002003900120049003208E
:1012B000059002A90748FFF725F80C20029002A923
:1012C0000548FFF71FF807B000BD000030380240A6
:1012D0000000024000080240001C024000B587B038
:1012E00000BF002001901248006840F00200104941
:1012F00008600846006800F00200019000BF00BFCF
:10130000032002900120039004900320059002A97D
:101310000848FEF7F7FF012211460648FFF700F9DB
:10132000012202210348FFF7FBF807B000BD0000CF
:10133000303802400004024000BFFEE77047000062
:1013400002480068C0F30220704700000CED00E086
:1013500010B5002807DA0A07140E054A00F00F033B
:101360001B1FD45403E00A07130E024A135410BD86
:1013700018ED00E000E400E07047704710B5FFF79B
:10138000E1F810BD1448006840F47000124908608C
:101390001248006840F001001049086000200F4921
:1013A000083108600D4800680D4908400B49086085
:1013B0000C48091D0860081F006820F48020091FE0
:1013C0000860002005490C3108604FF000600249B8
:1013D000803908607047000088ED00E00038024066
:1013E000FFFFF6FE1030002410B504462068C068E8
:1013F00020F040002168C86094F83900322803D1F9
:10140000222084F8390002E0012084F839002046C7
:10141000FFF707FF002010BD70B50446002694F8C2
:101420003960222E01D0322E52D1A068B0F5805FF3
:1014300013D1A56A206940B920684068C0F308004C
:101440002880A06A801CA06219E020684068C0B2B1
:101450002880A06A401CA06211E0206938B9206889
:101460004068C1B2A26A501CA062117007E02068F7
:10147000406800F07F01A26A501CA0621170E08DEC
:10148000401E80B2E08508BB2068C06820F02000C4
:101490002168C86094F83900322803D1122084F8FA
:1014A00039000EE02068C06820F480702168C860B0
:1014B0002068406920F0010021684861012084F81B
:1014C00039002046FFF7ACFE002070BD0020FCE78D
:1014D0000220FAE72DE9F04104460025206805695D
:1014E00025F44055E0680543206805612068C5681B
:1014F00049F20C6085432169A0680843616908438B
:10150000E169084305432068C5602068456925F402
:101510004075A069054320684561E069B0F5004F5A
:1015200072D173492068884203D07249206888428A
:1015300034D1FFF72DFA00EBC00101EB0010616818
:101540004900B0FBF1F06421B0FBF1F6FFF720FA9F
:1015500000EBC00101EB001061684900B0FBF1F73E
:10156000FFF716FA00EBC00101EB001061684900BB
:10157000B0FBF1F06421B0FBF1F000EBC00101EB36
:101580000010A7EB8000322101EB00106421B0FBBA
:10159000F1F066F31F1021688860A6E0FFF7E2F91A
:1015A00000EBC00101EB001061684900B0FBF1F0F5
:1015B0006421B0FBF1F6FFF7D5F900EBC00101EBB8
:1015C000001061684900B0FBF1F7FFF7CBF900EBC1
:1015D000C00101EB001061684900B0FBF1F064212B
:1015E000B0FBF1F000EBC00101EB0010A7EB8000B5
:1015F000322101EB00106421B0FBF1F066F31F1003
:101600002168886071E0FFE739492068884203D08B
:1016100038492068884234D1FFF7BAF900EBC0019D
:1016200001EB001061688900B0FBF1F06421B0FBB0
:10163000F1F6FFF7ADF900EBC00101EB00106168B6
:101640008900B0FBF1F7FFF7A3F900EBC00101EB54
:10165000001061688900B0FBF1F06421B0FBF1F08B
:1016600000EBC00101EB0010A7EB8000322101EB81
:1016700000106421B0FBF1F066F31F102168886050
:1016800033E0FFF76FF900EBC00101EB0010616878
:101690008900B0FBF1F06421B0FBF1F6FFF762F9CD
:1016A00000EBC00101EB001061688900B0FBF1F7AD
:1016B000FFF758F900EBC00101EB001061688900E9
:1016C000B0FBF1F06421B0FBF1F000EBC00101EBE5
:1016D0000010A7EB8000322101EB00106421B0FB69
:1016E000F1F066F31F1021688860BDE8F08100000A
:1016F000001001400014014010B50146002391F88C
:101700003930122B01D0322B2CD18868B0F5805F94
:101710000FD10A6A1088C0F308000C68606008697D
:1017200018B9086A801C086209E0086A401C08624F
:1017300005E00C6A601C086220780C686060C88C48
:10174000401E80B2C88458B90868C06820F0800084
:101750000C68E0600868C06840F040000C68E06019
:10176000002010BD0220FCE72DE9F04104460E46A2
:1017700017461D464FF00008FEF7DEFE80469FBB71
:101780002BE0681C48B32DB1FEF7D6FEA0EB080095
:10179000A84222D92068C06820F080002168C86073
:1017A0002068C06820F020002168C8602068C068F8
:1017B00020F480702168C8602068406920F0010032
:1017C00021684861012084F8390000BF002084F8B6
:1017D000380000BF0320BDE8F08120680068304079
:1017E000B04202D1012001E003E000200028C8D06F
:1017F00035E02AE0681C40B32DB1FEF79DFEA0EB5A
:101800000800A84221D92068C06820F08000216823
:10181000C8602068C06820F020002168C860206887
:10182000C06820F480702168C8602068406920F09A
:10183000010021684861012084F8390000BF0020C0
:1018400084F8380000BF0320C5E7206800683040F6
:10185000B04201D1012000E000200028CAD10020C0
:10186000B9E7000008B5244800680068C0F34010DC
:1018700048B34FF47A73012269461F48FFF754FCBE
:101880001E48008800F40040E8B91C48008800F4B5
:10189000804070B19DF800000A2803D0002017494D
:1018A000088024E01548008840F40040134908806F
:1018B0001DE09DF800000D2806D11048008840F476
:1018C00080400E49088012E09DF800000B4909880D
:1018D000C1F30D010A4A505408480088401C0749CA
:1018E000088008460088C72801DD002008800248DB
:1018F000FFF7F1FA08BD0000EC00002020000020F6
:101900002400002000BFFEE700BF704710B504466A
:101910000420FFF7B1FA0148046010BD1800002050
:1019200030B50446002504E04FF47A7000F004F866
:101930006D1CA542F8D330BD70B5034600224FF0B0
:10194000E02675690D4E366803FB06F44FF0E0267D
:10195000B16910E04FF0E026B06988420BD08842B0
:1019600002D20E1A324402E02E1A0E4432440146CC
:10197000A24200D300E0EDE700BF70BD18000020D8
:10198000FEF7E8FD0723022208214FF4A87000F0BB
:1019900011F8C020FFF7BAFF4FF4E13000F06EF805
:1019A000FFF79CFCFFF740FC40F2DC50FFF7B8FF6C
:1019B00000BFFEE72DE9F04192B004468846154687
:1019C0001E46002700BF002000902948006840F014
:1019D0008050274908600846006800F08050009059
:1019E00000BF00BF00BF002000902248006840F404
:1019F0004040204908600846006800F440400090DC
:101A000000BF00BF01200690079002200C90410506
:101A10000D91CDF838800F941095119606A8FFF718
:101A200027F807460FB100BFFEE70F200190022004
:101A30000290002003904FF4A05004904FF4805087
:101A40000590052101A8FEF719FE07460FB100BF5A
:101A5000FEE7FEF76BFD41F20101884205D1064821
:101A6000006840F480700449086012B0BDE8F0815D
:101A70004038024000700040003C024010B504466F
:101A80000748084908600846446000218160C16039
:101A9000016181610C214161FFF7B5FA10BD0000C1
:101AA00000100140EC0000204FF04070E1EE100A01
:101AB000704700000000010203040102030406074E
:101AC00008090000E41A00080000002024000000BB
:101AD000E8010008081B0008240000206C07000033
:101AE000040200080024F4000000000000000000D0
:101AF00001020304060708090000000000000000BE
:081B00000000000000000000DD
:04000005080001AD41
:00000001FF
