:020000040800F2
:1000000010D2002005030008D1170008B916000817
:10001000CD170008A1040008BD1E00080000000064
:100020000000000000000000000000004D02000879
:10003000A504000800000000A1020008C51800087F
:100040001F0300081F0300081F0300081F03000808
:100050001F0300081F0300081F0300081F030008F8
:100060001F0300081F0300081F0300081F030008E8
:100070001F0300081F0300081F0300081F030008D8
:100080001F0300081F0300081F0300081F030008C8
:100090001F0300081F0300081F0300081F030008B8
:1000A000611900081F0300081F0300081F03000850
:1000B0007119000881190008911900081F03000830
:1000C0001F0300081F0300081F0300081F03000888
:1000D0001F0300081D1E00081F0300081F0300085F
:1000E0001F0300081F0300081F0300081F03000868
:1000F0001F0300081F0300081F0300081F03000858
:100100001F0300081F0300081F0300081F03000847
:100110001F0300081F0300081F0300081F03000837
:100120001F0300081F0300081F0300081F03000827
:100130001F0300081F0300081F0300081F03000817
:100140001F0300081F0300081F0300081F03000807
:100150001F0300081F0300081F0300081F030008F7
:100160001F0300081F0300081F0300081F030008E7
:100170001F0300081F0300081F0300080000000001
:100180001F0300081F0300081F0300081F030008C7
:100190001F0300081F0300081F0300081F030008B7
:1001A0001F0300081F0300081F03000800F002F8E7
:1001B00000F03CF80AA090E8000C82448344AAF1C5
:1001C0000107DA4501D100F031F8AFF2090EBAE8C3
:1001D0000F0013F0010F18BFFB1A43F0010318477B
:1001E000F833000018340000103A24BF78C878C1F2
:1001F000FAD8520724BF30C830C144BF04680C602D
:10020000704700000023002400250026103A28BF74
:1002100078C1FBD8520728BF30C148BF0B60704778
:100220001FB503F0CBF91FBD10B510BD00F006F9E6
:100230001146FFF7F5FF01F04FFE00F024F903B47B
:10024000FFF7F2FF03BC01F03BFE00002A4B1968E8
:100250000868B0E8F04F80F30988BFF36F8F4FF064
:10026000000080F311887047000000000648006815
:10027000006880F3088862B661B6BFF34F8FBFF3A2
:100280006F8F00DF00BF00BF08ED00E0DFF80C005B
:10029000016841F470010160704700BF88ED00E023
:1002A000EFF30980BFF36F8F134B1A681EF0100F26
:1002B00008BF20ED108A20E9F04F106008B44FF01D
:1002C000500080F31188BFF34F8FBFF36F8F02F0A0
:1002D000FBFC4FF0000080F3118808BC1968086827
:1002E000B0E8F04F1EF0100F08BFB0EC108A80F39A
:1002F0000988BFF36F8F704768000020EFF3058017
:10030000704700000948804709480047FEE7FEE7BC
:10031000FEE7FEE7FEE7FEE7FEE7FEE7FEE7FEE7B5
:1003200004480549054A064B70470000FD180008BF
:10033000AD01000810CC002010D2002010CE00200B
:1003400010CE00207047032A40F2308010F0030CDA
:1003500000F0158011F8013BBCF1020F624498BF18
:1003600011F801CB00F8013B38BF11F8013BA2F1B5
:10037000040298BF00F801CB38BF00F8013B11F030
:10038000030300F02580083AC0F0088051F8043BD0
:10039000083A51F804CBA0E80810F5E7121D5CBF3D
:1003A00051F8043B40F8043BAFF30080D20724BF70
:1003B00011F8013B11F801CB48BF11F8012B24BF04
:1003C00000F8013B00F801CB48BF00F8012B704753
:1003D00010B5203AC0F00B80B1E81850203AA0E8E0
:1003E0001850B1E81850A0E81850BFF4F5AF5FEA14
:1003F000027C24BFB1E81850A0E8185044BF18C9C7
:1004000018C0BDE810405FEA827C24BF51F8043B6D
:1004100040F8043B08BF7047D20728BF31F8023BC1
:1004200048BF11F8012B28BF20F8023B48BF00F855
:10043000012B70477047704770477047754600F052
:100440002BF8AE4605006946534620F00700854666
:1004500018B020B5FFF764FFBDE820404FF000065C
:100460004FF000074FF000084FF0000B21F007019C
:10047000AC46ACE8C009ACE8C009ACE8C009ACE8DF
:10048000C0098D46704710B50446AFF30080204682
:10049000BDE81040FFF7D3BE00487047B0CB002046
:1004A00000BFFEE770470000F8B502460B46002586
:1004B000002400200021E6E0012606FA01F51E686E
:1004C00006EA0504AC4273D15E68022E02D05E6873
:1004D000122E13D1CF0802F1200656F827004E073E
:1004E000F70E0F26BE40B0434F07FF0E1E69BE40F9
:1004F0003043CF0802F1200646F8270010684F006D
:100500000326BE40B0431E7906F003064F00BE40EE
:10051000304310605E68012E08D05E68022E05D060
:100520005E68112E02D05E68122E13D190684F00C3
:100530000326BE40B0434F00DE68BE4030439060AB
:10054000506801268E40B0431E79C6F300168E40D7
:1005500030435060D0684F000326BE40B0434F0088
:100560009E68BE403043D0605E6806F08056B6F1AB
:10057000805FA8D100BF00260096454E366846F43D
:100580008046434F3E603E46366806F480460096FD
:1005900000BF00BF3F4E8F0856F827008E07370F69
:1005A0000F26BE40B0433C4EB24202D100262EE0A0
:1005B00068E03A4EB24201D1012628E0384EB242FC
:1005C00001D1022623E0374EB24201D103261EE0BC
:1005D000354EB24201D1042619E0344EB24201D167
:1005E000052614E0324EB24201D106260FE0314E0C
:1005F000B24201D107260AE02F4EB24201D10826AD
:1006000005E02E4EB24201D1092600E00A268F07EE
:100610003F0FBE4030431F4E8F0846F82700284E3C
:100620003068A0435E6806F48036B6F5803F00D19E
:100630002043234E3060361D3068A0435E6806F4C8
:100640000036B6F5003F00D120431D4E361D306008
:10065000361D3068A0435E6806F48016B6F5801F2C
:1006600000D12043164E08363060361D3068A04356
:100670005E6806F40016B6F5001F00D12043104E48
:100680000C363060491C1029FFF416AFF8BD00008D
:100690004438024008380140000002400004024093
:1006A00000080240000C024000100240001402400A
:1006B00000180240001C02400020024000240240BA
:1006C000003C01400AB1816101E00B048361704785
:1006D00001480068704700003C00002010B5044647
:1006E0000CB9012010BD607B20B90020207320468A
:1006F00000F01AF80220607345F255502168086036
:100700002068406820F0070061680843216848605D
:10071000206880686FF30B00A16808432168886037
:10072000012060730020DDE7704770B504460025A6
:1007300000BF207B012801D1022070BD0120207361
:1007400000BF02206073FFF7C3FF05460DE0FFF70F
:10075000BFFF401BB0F57A7F07D90320607300BF4D
:100760000020207300BF0320E7E72068C068C0F3C3
:1007700040000028EBD14AF6AA2021680860012039
:10078000607300BF0020207300BF00BFD5E70000EA
:1007900002480068401C0149086070473C00002086
:1007A00010B50D48006840F400700B490860084619
:1007B000006840F4806008600846006840F480707B
:1007C0000860052000F06CF80F2000F007F800F03A
:1007D00017F8002010BD0000003C024070B5044630
:1007E00000F01CFA4FF47A71B0FBF1F5284600F0E6
:1007F000CFFC00222146501E00F014F8002070BDEE
:1008000008B50020009000BF08BD00BF00F01F0227
:10081000012191404209920002F1E022C2F8001148
:1008200000BF70472DE9F05F80460D461646002751
:1008300000F0D0FF074639462A46334601F007004C
:10084000C0F1070ABAF1040F02D94FF0040A01E01F
:10085000C0F1070AD14600F1040ABAF1070F02D22B
:100860004FF0000A01E0A0F1030AD4464FF0010A5C
:100870000AFA09FAAAF1010A0AEA020A0AFA0CFAC1
:100880004FF0010B0BFA0CFBABF1010B0BEA030B66
:100890004AEA0B042146404600F0A4FFBDE8F09F61
:1008A00000BF00F00702064B19684FF6FF0319401E
:1008B000044B0B4343EA0221014B196000BF704710
:1008C0000CED00E00000FA0538B5002400BF002060
:1008D00000902348006840F0805021490860084695
:1008E000006800F08050009000BF00BF01200104AC
:1008F00091FAA1F1B1FA81F11A4A42F82100FFF709
:10090000E7FE044607E0FFF7E3FE001BB0F57A7F41
:1009100001D9032038BD1448406800F48030B0F598
:10092000803FF0D10120410491FAA1F1B1FA81F1A7
:100930000C4A42F82100FFF7CBFE044607E0FFF720
:10094000C7FE001BB0F57A7F01D90320E2E7064815
:10095000406800F40030B0F5003FF0D10020D9E746
:100960004038024000000E420070004070B504465E
:100970000E460025A748006800F00F00B0426FD275
:10098000A4490E700846006800F00F00B04201D084
:10099000012070BD207800F00200022807D19E4897
:1009A000006820F0F000A16808439B4908602078A7
:1009B00000F0010000283ED06068012807D1964869
:1009C00008380068C0F34040B8B90120E1E760682A
:1009D000022802D06068032807D18F4808380068D1
:1009E000C0F3406048B90120D3E78B48083800685D
:1009F000C0F3400008B90120CBE78748006820F029
:100A000003006168084384490860FFF761FE0546FA
:100A10006068012810D108E0FFF75AFE401B41F240
:100A20008831884201D90320B3E77B48006800F091
:100A30000C000428F0D1CDE06068022811D108E054
:100A4000FFF746FE401B41F28831884201D903205E
:100A50009FE77148006800F00C000828F0D1B9E069
:100A600024E06068032810D108E0FFF731FE401B46
:100A700041F28831884201D903208AE7664800683C
:100A800000F00C000328F0D1A4E008E0FFF720FEFE
:100A9000401B41F28831884201D9032079E75E4842
:100AA000006800F00C000028F0D193E0207800F0FE
:100AB0000200022807D15848006820F0F000A16821
:100AC000084355490860207800F00100002877D0DD
:100AD0006068012807D1504808380068C0F34040DA
:100AE000B8B9012055E76068022802D06068032881
:100AF00007D1494808380068C0F3406048B9012070
:100B000047E7454808380068C0F3400008B90120AD
:100B10003FE74148006820F00300616808433E4910
:100B20000860FFF7D5FD05466068012810D108E090
:100B3000FFF7CEFD401B41F28831884201D90320E6
:100B400027E73548006800F00C000428F0D137E0B2
:100B50006068022810D108E0FFF7BAFD401B41F29F
:100B60008831884201D9032013E72B48006800F040
:100B70000C000828F0D123E06068032810D108E0B9
:100B8000FFF7A6FD401B41F28831884201D90320BE
:100B9000FFE62148006800F00C000328F0D10FE0C8
:100BA00008E0FFF795FD401B41F28831884201D9EA
:100BB0000320EEE61848006800F00C000028F0D191
:100BC00014490E700846006800F00F00B04201D0D2
:100BD0000120DEE6207800F00400042807D10E484A
:100BE000006820F4E050E16808430B490860207871
:100BF00000F00800082808D10748006820F4604089
:100C0000216940EAC100044908600F20FFF7E6FDB2
:100C10000020BEE6003C02400838024010B500F05B
:100C200045F80949096801F0F001F02292FAA2F2B0
:100C3000B2FA82F2D140054A515CC84004490860CA
:100C40000846006810BD000008380240C63500089C
:100C50002800002010B5FFF7E1FF0749096801F4FB
:100C6000E0514FF4E05292FAA2F2B2FA82F2D1408D
:100C7000024A515CC84010BD08380240C635000821
:100C800010B5FFF7CBFF0749096801F460414FF445
:100C9000604292FAA2F2B2FA82F2D140024A515C68
:100CA000C84010BD08380240C635000870B50021A4
:100CB000002200230020274C246804F00C0424B1F7
:100CC000042C04D0082C41D103E0234840E0234801
:100CD0003EE0204C241F246804F03F011D4C241FDB
:100CE000246804F4800484B11C4CB4FBF1F5194C65
:100CF000241F246847F6C076344096FAA6F6B6FA62
:100D000086F6F44005FB04F20FE0134CB4FBF1F55A
:100D1000104C241F246847F6C076344096FAA6F695
:100D2000B6FA86F6F44005FB04F20A4C241F246848
:100D300004F440344FF4403595FAA5F5B5FA85F53D
:100D4000EC40641C6300B2FBF3F001E0024800BF1A
:100D500000BF70BD083802400024F40040787D01D7
:100D600038B504460025207800F00100002866D040
:100D7000F748006800F00C0004280DD0F448006823
:100D800000F00C00082813D1F148001F006800F49F
:100D90008000B0F5800F0BD1ED4808380068C0F333
:100DA000404000284BD06068002848D1012038BD61
:100DB0000020E749891F0870FFF78AFC054608E014
:100DC000FFF786FC401B41F28831884201D903209D
:100DD000EDE7DF4808380068C0F340400028EFD155
:100DE0002079DB49891F08706068A0B1FFF770FCAB
:100DF000054608E0FFF76CFC401B41F28831884251
:100E000001D90320D3E7D24808380068C0F3404036
:100E10000028EFD013E0FFF75BFC054608E0FFF782
:100E200057FC401B41F28831884201D90320BEE7BC
:100E3000C74808380068C0F340400028EFD1207848
:100E400000F00200022869D1C148006800F00C00DF
:100E500058B1BF48006800F00C00082821D1BC48F8
:100E6000001F006800F48000D8B9B948083800684D
:100E7000C0F3400020B1E068012801D0012096E7CE
:100E8000B3480838006820F0F800F82292FAA2F27D
:100E9000B2FA82F2216991400843AD4908390860ED
:100EA0003CE0E06828B30120AA490860FFF710FC85
:100EB000054606E0FFF70CFC401B642801D903201F
:100EC00075E7A34808380068C0F340000028F1D057
:100ED0009F480838006820F0F800F82292FAA2F241
:100EE000B2FA82F2216991400843994908390860B1
:100EF00014E0002097490860FFF7EAFB054606E08A
:100F0000FFF7E6FB401B642801D903204FE7904818
:100F100008380068C0F340000028F1D1207800F0C4
:100F2000080008282CD16069A8B101208A4908600E
:100F3000FFF7CEFB054606E0FFF7CAFB401B64281F
:100F400001D9032033E782486C300068C0F34000C9
:100F50000028F1D014E000207F490860FFF7B8FBBB
:100F6000054606E0FFF7B4FB401B642801D90320C7
:100F70001DE777486C300068C0F340000028F1D1CD
:100F8000207800F0040004286FD100BF00200090FA
:100F90006F483830006840F080506D493831086043
:100FA0000846006800F08050009000BF00BF6B480A
:100FB000006840F4807069490860FFF789FB0546C6
:100FC00006E0FFF785FB401B642801D90320EEE60D
:100FD0006248006800F480700028F2D000205C496C
:100FE00068310870FFF774FB054608E0FFF770FBF7
:100FF000401B41F28831884201D90320D7E654488A
:1010000068300068C0F340000028EFD1207A5049D2
:1010100068310870A068A0B1FFF75AFB054608E0E8
:10102000FFF756FB401B41F28831884201D903206B
:10103000BDE6474868300068C0F340000028EFD0A4
:1010400013E0FFF745FB054608E0FFF741FB401BB7
:1010500041F28831884201D90320A8E63C48683033
:101060000068C0F340000028EFD1A069F0B3384811
:10107000006800F00C00082872D0A069022850D146
:10108000002034490866FFF723FB054606E0FFF71A
:101090001FFB401B642801D9032088E62C48083830
:1010A0000068C0F340600028F1D1D4E9070108438B
:1010B00047F6C07292FAA2F2B2FA82F2616A9140E5
:1010C00008430122A16AC2EB51014FF4403292FA67
:1010D000A2F2B2FA82F2914008434FF0706292FAA3
:1010E000A2F2B2FA82F2E16A914000E03AE00843EB
:1010F0001749091F0860012016490866FFF7E8FA3A
:10110000054606E0FFF7E4FA401B642801D90320F6
:101110004DE60F4808380068C0F340600028F1D061
:1011200020E000200B490866FFF7D2FA054606E0EA
:10113000FFF7CEFA401B642801D9032037E60448A4
:1011400008380068C0F340600028F1D10AE007E0E9
:101150000838024000004742800E474200700040BD
:10116000012024E6002022E6042808D14FF0E021E7
:10117000096941F004014FF0E022116107E04FF0EE
:10118000E021096921F004014FF0E022116170476C
:1011900070B504462546681EB0F1807F01D301205A
:1011A0000FE0681E4FF0E02148610F214FF0FF3043
:1011B00000F018FB00204FF0E02188610720086153
:1011C000002070BD70477047704710B50446206816
:1011D0000069C0F34000D8B12068C068C0F3400087
:1011E000B0B16FF00200216808610120207620680C
:1011F000806900F0030018B12046FFF7E5FF05E025
:10120000204600F0ADF8204600F0ABF80020207634
:1012100020680069C0F38000D8B12068C068C0F3BE
:101220008000B0B16FF004002168086102202076D0
:101230002068806900F4407018B12046FFF7C4FFB1
:1012400005E0204600F08CF8204600F08AF80020E7
:10125000207620680069C0F3C000D8B12068C0685B
:10126000C0F3C000B0B16FF008002168086104202D
:1012700020762068C06900F0030018B12046FFF70F
:10128000A3FF05E0204600F06BF8204600F069F867
:101290000020207620680069C0F30010D8B12068D3
:1012A000C068C0F30010B0B16FF010002168086191
:1012B000082020762068C06900F4407018B12046EC
:1012C000FFF782FF05E0204600F04AF8204600F0D4
:1012D00048F8002020762068006900F0010058B12D
:1012E0002068C06800F0010030B16FF00100216893
:1012F0000861204600F036F820680069C0F3C0108D
:1013000058B12068C068C0F3C01030B16FF08000E1
:10131000216808612046FFF755FF20680069C0F387
:10132000801058B12068C068C0F3801030B16FF0F1
:10133000400021680861204600F015F82068006927
:10134000C0F3401058B12068C068C0F3401030B1FD
:101350006FF02000216808612046FFF734FF10BDC0
:1013600070477047704770477047F8B504460025CE
:1013700000262068006800F001052068C06800F4BD
:1013800080767DB176B100BF0020009020680068B3
:10139000009020684068009000BF00BFE06B40F004
:1013A0000100E06320680068C0F3400520684069E0
:1013B00000F001067DB176B100BF002000902068EA
:1013C0000068009020684068009000BF00BFE06B9C
:1013D00040F00400E06320680068C0F380052068E6
:1013E000406900F001067DB176B100BF0020009099
:1013F00020680068009020684068009000BF00BF2F
:10140000E06B40F00200E06320680068C0F3C005B4
:101410002068406900F001067DB176B100BF002070
:10142000009020680068009020684068009000BF2D
:1014300000BFE06B40F00800E06320680068C0F384
:1014400040152068C06800F020061DB116B1204686
:1014500000F0BEFA20680068C0F3C0152068C068BC
:1014600000F080061DB116B1204600F021FC206876
:101470000068C0F380152068C06800F040061DB108
:1014800016B1204600F08CFAE06B28B1012084F8F8
:1014900039002046FFF768FFF8BD10B504460CB9C7
:1014A000012010BDA06900B100E000BF94F8390030
:1014B00028B9002084F83800204600F025F80220E2
:1014C00084F839002068C06820F400502168C860A2
:1014D000204600F0DBFA2068006920F49040216883
:1014E00008612068406920F02A002168486120686E
:1014F000C06840F400502168C8600020E06301200B
:1015000084F839000020CCE710B586B0044628499D
:10151000206888424AD100BF00200090254800681A
:1015200040F00100234908600846006800F001000F
:10153000009000BF00BF00BF002000901D48143085
:10154000006840F010001B4914310860084600682C
:1015500000F01000009000BF00BF4815019002206D
:10156000029001200390022004900720059001A919
:101570001148FEF799FF4FF48060019001A90E48D1
:10158000FEF792FF2068C06820F040002168C86024
:101590002068C06840F020002168C8602520FFF75F
:1015A00034F9032211462520FFF73CF906B010BD9F
:1015B0000010014030380240000002402DE9F047A1
:1015C00004460D46164699464FF0000894F83980B7
:1015D000B8F1010F02D0B8F1120F69D105B116B9F7
:1015E0000120BDE8F08700BF94F83800012801D140
:1015F0000220F6E7012084F8380000BF0020E063F5
:1016000094F83900122803D1322084F8390002E01E
:10161000222084F83900A685E68535E0E08D401E5D
:10162000E085A068B0F5805F18D14B4600222021EC
:10163000204600F075FB08B10320D2E72F46206951
:1016400030B920684068C0F308003880AD1C1BE04A
:1016500020684068C0B238806D1C15E04B460022FF
:101660002021204600F05CFB08B10320B9E7206987
:1016700020B92068406805F8010B05E02068406843
:1016800000F07F0005F8010BE08D0028C6DC94F81F
:101690003900322803D1122084F8390002E00120F9
:1016A00084F8390000BF002084F8380000BF98E7B4
:1016B000022096E77047704700BFFEE700B587B08D
:1016C00000BF002001902648006840F00100244936
:1016D00008600846006800F00100019000BF00BFEC
:1016E00000BF002001900846006840F00400086038
:1016F0000846006800F00400019000BF00BF00BF72
:10170000002001900846006840F08000086008460C
:10171000006800F08000019000BF00BF012002902F
:1017200000200390022004900320059002A90D4898
:10173000FEF7BAFE4FF40050029000200390012003
:1017400004900320059002A90748FEF7ADFE0C2087
:10175000029002A90548FEF7A7FE07B000BD0000F1
:10176000303802400000024000080240001C0240E5
:1017700000B587B000BF002001901248006840F01B
:101780000200104908600846006800F0020001905D
:1017900000BF00BF032002900120039004900320AB
:1017A000059002A90848FEF77FFE0122114606486F
:1017B000FEF788FF012202210348FEF783FF07B0EE
:1017C00000BD0000303802400004024000BFFEE7C8
:1017D0007047000002480068C0F302207047000014
:1017E0000CED00E010B5002807DA0A07140E054AD0
:1017F00000F00F031B1FD45403E00A07130E024A24
:10180000135410BD18ED00E000E400E02DE9F041B4
:1018100092B00546884616461F46002400BF0020A9
:1018200000902648006840F080502449086008462F
:10183000006800F08050009000BF00BF00BF002093
:1018400000901F48006840F440401D490860084669
:10185000006800F44040009000BF00BF01200690E7
:10186000079002200C9041050D91CDF838800F951E
:101870001096119706A8FFF773FA04460CB100BF43
:10188000FEE7FFF721F804460CB100BFFEE70F208A
:10189000019002200290002003904FF4A050049089
:1018A0004FF480500590052101A8FFF75FF804462A
:1018B0000CB100BFFEE712B0BDE8F0814038024035
:1018C0000070004010B5FEF763FF00BF502080F3AA
:1018D0001188BFF34F8FBFF36F8F00BF01F096FCED
:1018E00018B14FF080500449086000BF002080F319
:1018F000118800BF10BD000004ED00E0144800682E
:1019000040F47000124908601248006840F001007D
:101910001049086000200F49083108600D48006830
:101920000D4908400B4908600C48091D0860081F54
:10193000006820F48020091F0860002005490C3150
:1019400008604FF00060024980390860704700006D
:1019500088ED00E000380240FFFFF6FE1030002462
:1019600010B50248FFF731FC10BD000084020020D2
:1019700010B50248FFF729FC10BD00004802002006
:1019800010B50248FFF721FC10BD0000D001002077
:1019900010B50248FFF719FC10BD00000C02002032
:1019A00010B504462068C06820F040002168C86077
:1019B00094F83900322803D1222084F8390002E05B
:1019C000012084F839002046FFF775FE002010BD85
:1019D00070B50446002694F83960222E01D0322ECC
:1019E00052D1A068B0F5805F13D1A56A206940B9D3
:1019F00020684068C0F308002880A06A801CA062AC
:101A000019E020684068C0B22880A06A401CA0622B
:101A100011E0206938B920684068C1B2A26A501C40
:101A2000A062117007E02068406800F07F01A26AA0
:101A3000501CA0621170E08D401E80B2E08508BB92
:101A40002068C06820F020002168C86094F8390040
:101A5000322803D1122084F839000EE02068C068D3
:101A600020F480702168C8602068406920F001007F
:101A700021684861012084F839002046FFF71AFEEA
:101A8000002070BD0020FCE70220FAE72DE9F041BC
:101A9000044600252068056925F44055E0680543A3
:101AA000206805612068C56849F20C60854321699A
:101AB000A068084361690843E16908430543206859
:101AC000C5602068456925F44075A0690543206814
:101AD0004561E069B0F5004F72D1734920688842D2
:101AE00003D072492068884234D1FFF7C9F800EB6F
:101AF000C00101EB001061684900B0FBF1F0642106
:101B0000B0FBF1F6FFF7BCF800EBC00101EB0010F1
:101B100061684900B0FBF1F7FFF7B2F800EBC001D4
:101B200001EB001061684900B0FBF1F06421B0FBEB
:101B3000F1F000EBC00101EB0010A7EB80003221B7
:101B400001EB00106421B0FBF1F066F31F10216877
:101B50008860A6E0FFF77EF800EBC00101EB001003
:101B600061684900B0FBF1F06421B0FBF1F6FFF7CA
:101B700071F800EBC00101EB001061684900B0FB97
:101B8000F1F7FFF767F800EBC00101EB00106168A7
:101B90004900B0FBF1F06421B0FBF1F000EBC001B3
:101BA00001EB0010A7EB8000322101EB0010642153
:101BB000B0FBF1F066F31F102168886071E0FFE769
:101BC00039492068884203D038492068884234D196
:101BD000FFF756F800EBC00101EB001061688900C7
:101BE000B0FBF1F06421B0FBF1F6FFF749F800EB30
:101BF000C00101EB001061688900B0FBF1F7FFF74D
:101C00003FF800EBC00101EB001061688900B0FBF8
:101C1000F1F06421B0FBF1F000EBC00101EB00102A
:101C2000A7EB8000322101EB00106421B0FBF1F042
:101C300066F31F102168886033E0FFF70BF800EBB4
:101C4000C00101EB001061688900B0FBF1F0642174
:101C5000B0FBF1F6FEF7FEFF00EBC00101EB001058
:101C600061688900B0FBF1F7FEF7F4FF00EBC001FB
:101C700001EB001061688900B0FBF1F06421B0FB5A
:101C8000F1F000EBC00101EB0010A7EB8000322166
:101C900001EB00106421B0FBF1F066F31F10216826
:101CA0008860BDE8F0810000001001400014014090
:101CB00010B50146002391F83930122B01D0322B98
:101CC0002CD18868B0F5805F0FD10A6A1088C0F304
:101CD00008000C686060086918B9086A801C08620E
:101CE00009E0086A401C086205E00C6A601C086292
:101CF00020780C686060C88C401E80B2C88458B9D7
:101D00000868C06820F080000C68E0600868C0685F
:101D100040F040000C68E060002010BD0220FCE7AD
:101D20002DE9F04104460E4617461D464FF00008C7
:101D3000FEF7CEFC80469FBB2BE0681C48B32DB15C
:101D4000FEF7C6FCA0EB0800A84222D92068C068B4
:101D500020F080002168C8602068C06820F0200062
:101D60002168C8602068C06820F480702168C8605D
:101D70002068406920F0010021684861012084F852
:101D8000390000BF002084F8380000BF0320BDE800
:101D9000F081206800683040B04202D1012001E0AB
:101DA00003E000200028C8D035E02AE0681C40B3DA
:101DB0002DB1FEF78DFCA0EB0800A84221D92068C8
:101DC000C06820F080002168C8602068C06820F0EA
:101DD00020002168C8602068C06820F480702168F5
:101DE000C8602068406920F0010021684861012036
:101DF00084F8390000BF002084F8380000BF0320B9
:101E0000C5E7206800683040B04201D1012000E001
:101E100000200028CAD10020B9E7000008B52448F6
:101E200000680068C0F3401048B34FF47A73012291
:101E300069461F48FFF7C2FB1E48008800F40040B7
:101E4000E8B91C48008800F4804070B19DF800009B
:101E50000A2803D000201749088024E0154800888C
:101E600040F40040134908801DE09DF800000D2853
:101E700006D11048008840F480400E49088012E0E6
:101E80009DF800000B490988C1F30D010A4A50541E
:101E900008480088401C0749088008460088C72871
:101EA00001DD002008800248FFF75FFA08BD00004E
:101EB0009001002048000020C800002000BFFEE77D
:101EC00000BF704710B504460420FFF74DF90148E4
:101ED000046010BD400000201CB5FEF761FC082323
:101EE000022219214FF4C070FFF790FCC020FFF7C9
:101EF000E9FF4FF4E13000F029FDFFF739FCFFF76F
:101F0000DDFB0E48012100234FF48272CDE9001061
:101F10000BA10D4801F034F90C48022100234FF4C5
:101F20008272CDE900100AA10B4801F029F90B4893
:101F3000FEF7D4FB00F088FE00BFFEE700000020A3
:101F400074657374000000002D290008040000204F
:101F5000746573743200000041290008B800002045
:101F60002DE9F04105460E461C4807681C480068EC
:101F7000001D00F001FD50B91948006890F82C10C0
:101F80000120884017490968814316480160681C90
:101F900038B936B112480168091D134800F02AFD0E
:101FA0001AE07C190E4800684460BC4207D20C4815
:101FB0000168091D0D48006800F002FD0CE00848AA
:101FC0000168091D0A48006800F0FAFC0948006829
:101FD000844201D207480460BDE8F0817C00002003
:101FE000680000208000002074CB002070000020DA
:101FF0006C0000209800002010B5044600F006FD9B
:1020000023480068401C224908602248006840B903
:10201000204804600846006801280DD100F0B6F998
:102020000AE01D48006838B91A480068C06AE16AC9
:10203000884201D81748046018480068401C1749B6
:10204000086094F82C10012088401549096808435D
:1020500013490860E16A01EB8101124A02EB810039
:10206000211D00F0C7FC00F0E3FC0B48006868B1DC
:1020700008480068C06AE16A884207D24FF0805081
:1020800009490860BFF34F8FBFF36F8F10BD000089
:1020900078000020680000208400002094000020C8
:1020A00080000020C0CA002004ED00E010B500F060
:1020B000ADFC0C48006890B90B4800F071FC0B486F
:1020C00000F06EFC08480A490860084809490860A1
:1020D000002210210A2000F04BFE0249086000F0A7
:1020E000A7FC10BDAC00002088CB00209CCB0020BA
:1020F000A4000020A800002070B523E000F0DCFD63
:102100001348006808B9012000E00020054601F0EE
:102110008DF9BDB900F07AFC0D48C068C468201D77
:1021200000F02AFC0B480068401E0A4908600A4873
:102130000068401E0849086000F07AFC204600F064
:1021400060F800BF044800680028D7D170BD0000C7
:1021500060CB0020780000207400002070B5044699
:102160000D46206C70B1216CE0680844E060616845
:10217000E068884201D32068E0602846226CE1686C
:10218000FEF7E1F870BD2DE9F04104460F46154613
:102190004FF00008A66B206C40B9206860BB6068F7
:1021A00001F0C2F880460020606025E07DB9394624
:1021B000226CA068FEF7C7F8216CA0680844A060F4
:1021C000D4E90110884217D32068A06014E0394692
:1021D000226CE068FEF7B7F8216CE068401AE06016
:1021E0002168E068884203D2216C6068401AE06090
:1021F000022D01D106B1761E701CA0634046BDE8D9
:10220000F08110B50446206B00F022FC204600F05F
:102210001FFC10BD0146084A126812680AB9012263
:1022200000E000220A600A6822B9034A1268D268F4
:10223000106800E000207047A400002030B54FF483
:102240004843174800F007042CB1C01D20F00700D8
:10225000134C041B1B1B0246124C22600024114D20
:102260006C60D018083820F007000F4C2060002464
:102270000D4D2D686C600C4D2D682C601146441A74
:102280004C60094C24680C60084D4C682C60084D6B
:102290004C682C604FF00044064D2C6030BD0000AF
:1022A000C00200204C000020540000205C000020F0
:1022B000580000206000002000BFFFF71DFF064807
:1022C00000680128F9D94FF0805004490860BFF335
:1022D0004F8FBFF36F8FF0E7C0CA002004ED00E01E
:1022E0002DE9F04106460D4617469846069C0DB965
:1022F000246000E02760E66325640121204600F0A9
:1023000001FEBDE8F0812DE9FF5F80460F46914652
:10231000DDE90E6A109CA9F10100216B01EB800B35
:102320002BF0070B002507E0795D04F134004155DF
:10233000785D00B902E06D1C102DF5D300BF0021BF
:1023400043200155052E00D30426E6626664002072
:10235000A064201D00F031FB04F1180000F02DFBFB
:102360002461C6F10500A06164620020E06484F885
:10237000500041465846039A00F0C2FA2060BAF174
:10238000000F01D0CAF80040BDE8FF9F10B500243F
:1023900007E004EB84010F4A02EB810000F000FB30
:1023A000641C052CF5D30C4800F0FAFA0B4800F039
:1023B000F7FA0B4800F0F4FA0A4800F0F1FA0A487C
:1023C00000F0EEFA0448094908600448084908602A
:1023D00010BD0000C0CA002024CB002038CB002054
:1023E0004CCB002060CB002074CB00206C00002080
:1023F0007000002010B50146164800E00068036830
:102400008B42FBD30246436813448B4204D143689A
:102410004C682344436001460A464B6813440468F1
:10242000A34211D10C4C03682468A34208D04B6826
:102430000468646823444B6003681B680B6005E014
:10244000054B1B680B6001E003680B60884200D0FD
:10245000016010BD4C000020540000202DE9F04127
:1024600004460D4616461F464FF00008656024617D
:10247000B5420CD8F01BA169884202D34FF0010885
:1024800011E0211D0948006800F09AFA0BE0BE42F5
:1024900004D2BD4202D34FF0010804E0211D0448DC
:1024A000006800F08DFA4046BDE8F081A8000020E9
:1024B000A400002070B5054600F0A8FAA86B08B982
:1024C000012400E0002400F0B3FA204670BD70B58E
:1024D000054600F09BFAA86BE96B884201D1012404
:1024E00000E0002400F0A4FA204670BDF8B50546CF
:1024F0000E4610480068C068C468201D00F03CFA11
:10250000E069012811D1A06941192B4632462046C5
:10251000FFF7A4FF48B1002003462A460146009079
:10252000204601F015F8074600BF2046616A88473B
:10253000F8BD0000A4000020F0B587B056E0039875
:10254000002805DA04AED6E90020B168904700BF44
:10255000039800284ADB059C606908B9012000E067
:10256000002010B9201D00F007FA02A800F0A0F822
:10257000054603980A2837D2DFE800F00905072549
:1025800027320608262800BF00BF00BF00BF0498FE
:10259000A269811803462A462046FFF75FFF88B1EB
:1025A0002046616A8847E06901280BD1002000902D
:1025B0000498A169421800231946204600F0C8FF7C
:1025C000074600BF11E000BF0FE000BF0498A06104
:1025D000A06941192B462A462046FFF73FFF04E039
:1025E000204600F035FA00E000BF00BF00231A4685
:1025F00003A90448006800F0D7FB00289FD107B06A
:10260000F0BD0000AC000020F8B505460C4600F017
:1026100053FB684600F04CF80646009820BB44B9CE
:10262000B54206D800F002FF31462846FFF75EFFAC
:102630001CE03CB10E480068006808B9012000E0C9
:1026400000200446A91B22460A48006800F02EFA22
:1026500000F0ECFE50B94FF0805007490860BFF31E
:102660004F8FBFF36F8F01E000F0E0FEF8BD000078
:10267000A8000020AC00002004ED00E00A49096831
:10268000096809B9012100E0002121B14FF0FF31B3
:10269000064A116006E004490968C968C868034A27
:1026A00041681160704700006C0000209800002015
:1026B00070B5044600F0A4FD054607480068854251
:1026C00004D200F00BF80120206001E0002020601F
:1026D00001480560284670BDB40000202DE9F8438C
:1026E00026E01D480068C06805681B480068C0688F
:1026F000C468201D00F040F92046616A8847E069FF
:10270000012815D1A0694619AE4207D96660246137
:10271000211D1148006800F053F909E0002003462C
:102720002A4601460090204600F012FF804600BF76
:1027300009480068006808B9012000E0002000286E
:10274000CFD005480768054800680349086003487A
:102750000760BDE8F8830000A4000020A800002066
:1027600000BF502080F31188BFF34F8FBFF36F8FEE
:1027700000BF00BFFEE708B500BF6846FFF74AFD8F
:10278000044620460099FFF73FFFFFF7D5FEF4E728
:1027900070B5044600F03AF994F9455010E0606ACB
:1027A00008B9012000E0002038B904F1240000F04D
:1027B000FDFD18B100F0BAF900E003E0681E45B273
:1027C000002DECDC00BFFF2084F8450000F030F95C
:1027D00000F01CF994F9445010E0206908B9012078
:1027E00000E0002048B904F1100000F0DFFD08B15E
:1027F00000F09CF9681E45B200E001E0002DECDC21
:1028000000BFFF2084F8440000F012F970BD000002
:102810002DE9F04105464FF0000800F04DFA2B4835
:10282000006808B9FFF70AFD294800682840002819
:1028300047D145B1083505F0070020B105F0070084
:10284000C0F108000544002D3BD0224800688542B5
:1028500037D8214E3046046801E026462468606877
:10286000A84202D220680028F7D1184800688442A4
:1028700027D0306800F10808206830606068401B8D
:10288000102807D967196068401B78606560384672
:10289000FFF7B0FD0F4960680968081A0D49086024
:1028A000084600680D490968884203D20948006853
:1028B0000A490860064960680968084360600020AA
:1028C000206000F0B3FD4046BDE8F08154000020D8
:1028D00060000020580000204C0000205C00002018
:1028E0000648006830B10549096801F14800896C63
:1028F000491C016001480068704700006800002022
:10290000001F4FF080730360001F21F0010303607C
:10291000001F054B036014380260001F6FF00203B4
:1029200003602038704700006127000805E0034875
:10293000FDF7FBFE002000F0DFF8F8E7B80000200C
:1029400002E00C2000F0D8F8FBE7000010B50446C8
:102950000748084908600846446000218160C1605A
:10296000016181610C214161FEF797FD10BD0000FE
:10297000001001409001002001460A69D1E90130B0
:102980009860D1E9010358605068884201D1886895
:102990005060002008611068401E10601068704789
:1029A00000F1080141604FF0FF31816000F1080142
:1029B000C160016100210160704700210161704721
:1029C00010B502460B685C1C0CB9106907E002F1F7
:1029D000080000E04068446824689C42FAD94468D2
:1029E0004C604C68A160886041600A611468641C96
:1029F000146010BD42684A6093688B6093685960A8
:102A00009160086103685B1C0360704700BF502041
:102A100080F31188BFF34F8FBFF36F8F00BF034860
:102A20000068401C014908607047000064000020F5
:102A300006480068401E054908600846006820B93D
:102A4000002080F3118800BF00BF704764000020A1
:102A500070B506463546D6B1083D2C460C4960682F
:102A60000968084098B1206888B909496068096810
:102A70008843606000F020F90649606809680844EE
:102A8000044908602046FFF7B5FC00F0CFFC70BD9C
:102A9000600000205800002003484FF0E02148610A
:102AA0000720086170470000FFB70B002DE9F041D7
:102AB00005460E4617462C46FFF7A8FF94F944003A
:102AC000401C10B9002084F8440094F94500401CD3
:102AD00010B9002084F84500FFF7AAFFA06B28B9C1
:102AE0003A46314604F1240000F036F82046FFF75C
:102AF0004FFEBDE8F081000070B50446002544B1EA
:102B000000F0DAF800212046FFF72AFA00F08EFCE8
:102B100005463DB94FF0805003490860BFF34F8F21
:102B2000BFF36F8F70BD000004ED00E0012001498C
:102B3000086070478C00002070B505460C460548BB
:102B4000016818312846FFF73BFF01212046FFF7B7
:102B500007FA70BD6800002070B506460D461446A1
:102B60000648016818313046FFF744FF0CB14FF0BA
:102B7000FF3521462846FFF7F3F970BD68000020B5
:102B800070B505462C46002D4BD02649E06A0968F1
:102B9000C96A884245D2A06900F0004028B921489E
:102BA0000068C06AC0F10500A061E16A01EB810123
:102BB0001D4A02EB81016069884201D1012000E0D9
:102BC000002050B3201DFFF7D7FE78B9E06A00EB74
:102BD0008000154951F8200040B994F82C100120CC
:102BE0008840124909688143104801600D48006817
:102BF000C06AE06294F82C10012088400B490968F3
:102C000008430A490860E16A01EB8101064A02EBC8
:102C10008100211DFFF7EEFE03E002480068C06A54
:102C2000E06270BD68000020C0CA00208000002063
:102C30000349096801600349096841607047000061
:102C4000900000207C0000201CB5144800210B4699
:102C50008222CDE9001012A1134800F091FA044637
:102C6000012C02D100F056FC0446012C14D100BF07
:102C7000502080F31188BFF34F8FBFF36F8F00BFD9
:102C80004FF0FF3009490860012009490860002021
:102C90000849086000F048F81CBD00009C000020B6
:102CA00049444C4500000000B9220008980000206B
:102CB000840000207C00002002480068401C01497C
:102CC00008607047A00000201248006818B1012079
:102CD000114908601DE000200F4908600F48006896
:102CE000B0FA80F0C0F11F0101EB81020C4B03EB45
:102CF000820042685268426000F1080243689342D1
:102D000002D14268526842604268D268054B1A603C
:102D100000BF7047A00000208C0000208000002031
:102D2000C0CA00206800002010B50E48006840F4BA
:102D300070000C4908600846006840F07040086068
:102D4000FFF7AAFE002008490860FDF79FFA074830
:102D5000006840F0404005490860FDF787FA002010
:102D600010BD000020ED00E06400002034EF00E022
:102D70002DE9F84307460D4690460DB9002601E0BF
:102D800007FB05F606F14800FFF742FD044644B193
:102D900004F1480943464A46294638460094FFF75D
:102DA0009FFA2046BDE8F8832DE9FF4782B005462B
:102DB00089461E464FF0000A2C4600BFFFF726FE4C
:102DC000D4F83880B8F1000F3BD0E7684946204678
:102DD000FFF7C4F9DEB9A8F10100A063206810B9BB
:102DE000FFF77EFD6060206908B9012000E0002047
:102DF00008BB04F1100000F0D9FAE0B14FF08050A8
:102E00003F490860BFF34F8FBFF36F8F13E0E76058
:102E1000606A08B9012000E0002060B904F12400D4
:102E200000F0C4FA38B14FF0805035490860BFF364
:102E30004F8FBFF36F8FFFF7FBFD012006B0BDE89A
:102E4000F087049818B9FFF7F3FD0020F6E7BAF110
:102E5000000F04D16846FFF7EBFE4FF0010AFFF7C1
:102E6000E7FDFFF729FFFFF7D1FD94F94400401C6F
:102E700010B9002084F8440094F94500401C10B9B2
:102E8000002084F84500FFF7D3FD04A9684600F050
:102E900049F940BB2046FFF70DFBF0B1206830B97F
:102EA000FFF7B4FD6068FFF76BFEFFF7C1FD04F1AB
:102EB00024000499FFF740FE2046FFF769FC00F06C
:102EC000B5FA00287FF47AAF4FF080500C490860C3
:102ED000BFF34F8FBFF36F8F70E72046FFF758FCAB
:102EE00000F0A4FA6AE72046FFF752FC00F09EFAD1
:102EF0002046FFF7DFFA0028EED000209EE7000012
:102F000004ED00E070B505460E462C46FFF77EFD49
:102F1000D4E90F12206801FB020060600020A0636A
:102F20002068A060E06B401E226C216800FB02104C
:102F3000E060FF2084F8440084F845009EB92069D1
:102F400008B9012000E00020A8B904F1100000F049
:102F50002DFA80B14FF0805009490860BFF34F8FC0
:102F6000BFF36F8F07E004F11000FFF719FD04F1C4
:102F70002400FFF715FDFFF75BFD012070BD000089
:102F800004ED00E02DE9FF4383B0074688461D4667
:102F90004FF000093C4600BFFFF738FDA06BE16B26
:102FA000884201D3022D28D12A4641462046FFF708
:102FB000EAF80646606A08B9012000E0002068B916
:102FC00004F1240000F0F2F988B14FF0805032494A
:102FD0000860BFF34F8FBFF36F8F08E03EB14FF033
:102FE00080502D490860BFF34F8FBFF36F8FFFF7FD
:102FF0001FFD012007B0BDE8F083059818B9FFF761
:1030000017FD0020F6E7B9F1000F04D101A8FFF782
:103010000FFE4FF00109FFF70BFDFFF74DFEFFF725
:10302000F5FC94F94400401C10B9002084F84400D9
:1030300094F94500401C10B9002084F84500FFF7C2
:10304000F7FC05A901A800F06DF8F0B92046FFF7DC
:103050003EFAA0B104F110000599FFF76DFD20467E
:10306000FFF796FB00F0E2F9002895D14FF0805071
:1030700009490860BFF34F8FBFF36F8F8CE720467D
:10308000FFF786FB00F0D2F986E72046FFF780FBCA
:1030900000F0CCF90020ADE704ED00E02DE9F05F91
:1030A00005468A4616461F462C4600BF5021EFF3C0
:1030B000118081F31188BFF34F8FBFF36F8F00BF73
:1030C0008146A06BE16B884201D3022F20D194F995
:1030D00045B03A4651462046FFF755F80BF101003E
:1030E00070B9606A08B9012000E0002068B904F1F5
:1030F000240000F05BF940B13EB10120306004E0F3
:103100000BF1010040B284F845004FF0010801E0E6
:103110004FF0000800BF89F3118800BF4046BDE8AA
:10312000F09F000070B504460D46FFF76FFC124893
:1031300002682868401C08B9002619E00F49206879
:103140000968884204D06068904201D801260FE0E7
:103150006068101A2968884209D228686168511A83
:10316000401A28602046FFF763FD002600E0012694
:10317000FFF75EFC304670BD7C0000209000002010
:103180002DE9FF4F85B0804689461746DDE912AB31
:10319000B800FFF73DFB064656B15420FFF738FB59
:1031A00004460CB1266304E03046FFF751FC00E012
:1031B00000247CB10020CDE900ABCDE902403A46C5
:1031C00049464046089BFFF79EF82046FEF714FF4D
:1031D000012501E04FF0FF35284609B0BDE8F08F2A
:1031E0000549096809B9012005E00449096809B9D8
:1031F000022000E00020704784000020A000002092
:1032000001490868704700007C0000202DE9F0416A
:1032100000273A480068002863D139480068451CF7
:10322000374805608DB93748D0F8008036480068C7
:10323000344908603448C0F8008034480068401CB5
:1032400032490860FFF71AFA00BF3148006885422A
:103250003BD300BF2B480068006808B9012000E09C
:10326000002020B14FF0FF30294908602CE02548AC
:103270000068C068C4686668B54202D22448066027
:1032800022E0201DFFF778FBA06A18B104F11800B6
:10329000FFF772FB94F82C10012088401D49096843
:1032A00008431C490860E16A01EB81011A4A02EBFC
:1032B0008100211DFFF79EFB1849E06A0968C96A71
:1032C0008842C7D30127C5E700BF14480068C06A19
:1032D00000EB8000104951F82000012800D9012797
:1032E00004E00F480068401C0D4908600D48006864
:1032F00000B101273846BDE8F0810000A0000020A1
:103300007C0000206C000020700000209000002055
:103310009800002080000020C0CA00206800002023
:10332000880000208C00002070B505462C46002641
:10333000ADB3A06C401EA064616CE06A88422ED0E0
:10334000A06C60BB201DFFF717FB78B9E06A00EBAB
:103350008000144951F8200040B994F82C10012045
:1033600088401149096881430F480160606CE06240
:10337000E06AC0F10500A06194F82C10012088409B
:1033800009490968084308490860E16A01EB8101BD
:10339000044A02EB8100211DFFF72CFB0126304679
:1033A00070BD0000C0CA00208000002070B5064635
:1033B000F068C46804F11800FFF7DEFA15480068E9
:1033C000A8B9201DFFF7D8FA94F82C1001208840E6
:1033D00011490968084310490860E16A01EB81015D
:1033E0000E4A02EB8100211DFFF704FB04E004F10B
:1033F00018010B48FFF7FEFA0A49E06A0968C96A32
:10340000884204D9012501200749086000E0002511
:10341000284670BDA000002080000020C0CA002007
:103420004CCB0020680000208C00002070B50024E8
:103430000026FFF7EBFA2E480068401E2C49086072
:103440000846006800284FD12A48006800284BD061
:1034500024E02948C068C46804F11800FFF78CFA1A
:10346000201DFFF789FA94F82C1001208840234989
:103470000968084321490860E16A01EB8101204A9B
:1034800002EB8100211DFFF7B5FA1E49E06A0968C9
:10349000C96A884202D301201B49086016480068A7
:1034A00008B9012000E000200028D2D00CB1FFF7BD
:1034B000E5F81648056865B100BFFFF7A7FE10B133
:1034C0000120114908606D1E002DF6D100200F4922
:1034D00008600D48006838B1012630070C490860C3
:1034E000BFF34F8FBFF36F8FFFF7A2FA304670BD67
:1034F000A0000020780000204CCB0020800000209D
:10350000C0CA0020680000208C0000208800002035
:1035100004ED00E01CB50024FEF7C8FD0748006874
:1035200050B10748022100238222CDE9001005A1F5
:103530000648FFF725FE044620461CBDAC000020CF
:10354000B0000020546D7220537663007727000886
:103550002DE9FF4705460C4616461F46DDF830802C
:103560004FF000091448006810B3009401960295CA
:10357000062C15DAFFF734FE022808D10023424654
:1035800069460D480068FFF7FDFC814610E0002306
:103590001A46694608480068FFF7F4FC814607E0D0
:1035A00000233A46694604480068FFF777FD8146E4
:1035B000484604B0BDE8F087AC0000204FF04070F2
:1035C000E1EE100A7047000000000102030401024E
:1035D0000304060708090000F83500080000002071
:1035E000B8000000E8010008B0360008B80000206C
:1035F00058D1000004020008000000000000000094
:103600000018024001000000001802400200000003
:1036100000180240040000000018024008000000EA
:103620000024F40000000000000000000102030478
:10363000060708090000000000000000000000006C
:10364000000000000000000000000000000000007A
:10365000000000000000000000000000AAAAAAAAC2
:10366000000000000000000000000000000000005A
:10367000000000000000000000000000000000004A
:10368000000000000000000000000000000000003A
:10369000000000000000000000000000000000002A
:1036A000000000000000000000000000000000001A
:04000005080001AD41
:00000001FF
